S014000054696D6572315F696E7075742E737265634F
S11300000C942A000C9434000C9434000C943400A6
S11300100C9434000C9434000C9434000C9434008C
S11300200C9434000C9434000C9434000C9434007C
S11300300C9434000C9434000C9434000C9434006C
S11300400C9434000C9434000C9434000C9434005C
S11300500C94340011241FBECFE5D8E0DEBFCDBF21
S11300600E9412010C9455010C94000092B3907FED
S1130070282F22952F70922B92BBA898A998AA9A00
S1130080EFECF7E03197F1F700C00000AA98EFEC2D
S1130090F7E03197F1F700C0000092B3907F8F70C2
S11300A0892B82BBA898A998AA9A8FEC97E001970C
S11300B0F1F700C00000AA98EFECF7E03197F1F7F0
S11300C000C00000089592B3907F282F22952F70CE
S11300D0922B92BBA89AA998AA9AEFECF7E03197D1
S11300E0F1F700C00000AA98EFECF7E03197F1F7C0
S11300F000C0000092B3907F8F70892B82BBA89AB6
S1130100A998AA9A8FEC97E00197F1F700C0000034
S1130110AA98EFECF7E03197F1F700C000000895DA
S11301208FE081BB8FEF84BB8FE39CE90197F1F7EC
S113013000C0000082E00E94360088E20E9436007F
S11301408CE00E94360086E00E94360081E00E9426
S1130150360008950F931F93CF93FC018081882369
S113016059F08F01C0E00E946300CF5FF801EC0FEB
S1130170F11D80818111F7CFCF911F910F910895C7
S1130180EF92FF920F931F93CF939C018B010097E3
S113019019F140E0EAE0F0E0BF010E942D01CB013B
S11301A04F5F0097C9F74423C1F0E42FF0E0E00F5C
S11301B0F11FC0E00F2EFAE0EF2EF12CF02D319755
S11301C0C901B7010E942D01805D8083262F372F3E
S11301D0CF5F4C13F4CF01C040E0F801E40FF11DF0
S11301E080E28083CF911F910F91FF90EF9008954B
S11301F08E9888B7806288BF8EB582648EBD08B63B
S113020005FEFDCF26B537B588B7806288BF8EB5A9
S113021082608EBD08B605FEFDCF86B597B5821BFC
S1130220930B0895CF93DF93CDB7DEB72A970FB61C
S1130230F894DEBF0FBECDBF0E9490000E94F8006C
S1130240BE016F5F7F4F0E94C00080EC0E943600A9
S1130250CE0101960E94AA00F1CF97FB072E16F457
S1130260009407D077FD09D00E94410107FC05D016
S11302703EF4909581959F4F0895709561957F4FB9
S11302800895AA1BBB1B51E107C0AA1FBB1FA617D9
S1130290B70710F0A61BB70B881F991F5A95A9F72B
S11102A080959095BC01CD010895F894FFCF90
S9030000FC
