S01200006D617472616E7068696D2E73726563E1
S11300000C942A000C9447000C9447000C9447006D
S11300100C9447000C9447000C9447000C94470040
S11300200C9447000C9447000C9447000C94470030
S11300300C9447000C9447000C9447000C94470020
S11300400C9447000C9447000C9447000C94470010
S11300500C94470011241FBECFE5D4E0DEBFCDBF12
S113006010E0A0E6B0E0ECE8F1E002C005900D92EB
S1130070AE36B107D9F720E0AEE6B0E001C01D927C
S1130080A137B207E1F70E948F000C94C4000C94CE
S11300900000E0E6F0E050E081918BBB452F24E0C6
S11300A030E089B390E0022E02C0959587950A94BA
S11300B0E2F780FF40936E002F5F3F4F4F5F283081
S11300C0310579F75C5F503139F708956AE070E0E3
S11300D00E949C008093700060936F0080E485BB55
S11300E0E0916F00F0E0EC59FF4F808188BB8FE313
S11300F09FE10197F1F700C0000015BA80E885BBC5
S1130100E0917000F0E0EC59FF4F808188BB8FE3F1
S11301109FE10197F1F700C0000015BA08958FE040
S11301208ABB8FEF87BB84BB0E94490080916E001D
S113013090E00E946600F8CF97FB072E16F4009417
S113014007D077FD09D00E94B00007FC05D03EF42B
S1130150909581959F4F0895709561957F4F08956F
S1130160AA1BBB1B51E107C0AA1FBB1FA617B707D9
S113017010F0A61BB70B881F991F5A95A9F78095F5
S10F01809095BC01CD010895F894FFCFC8
S111018CFEFDFBF7C0F9A4B0999282F88090B2
S9030000FC
