:100000000C942A000C9434000C9434000C943400AA
:100010000C9434000C9434000C9434000C94340090
:100020000C9434000C9434000C9434000C94340080
:100030000C9434000C9434000C9434000C94340070
:100040000C9434000C9434000C9434000C94340060
:100050000C94340011241FBECFE5D8E0DEBFCDBF25
:100060000E9445000C945B000C94000080EB87BB61
:1000700080E188BB81E58DB908958FB9779BFECF6C
:100080000895779BFECF8FB108950E9436008FEEC2
:1000900088BB8FEF81BB82E30E943D000E9441003C
:1000A00082BB2FEF89E698E1215080409040E1F734
:0A00B00000C00000F0CFF894FFCF6D
:00000001FF
