:100000000C942A000C945E000C946A000C94470037
:100010000C9447000C9447000C9447000C94470044
:100020000C9447000C9447000C9447000C94470034
:100030000C9447000C9447000C9447000C94470024
:100040000C9447000C9447000C9447000C94470014
:100050000C94470011241FBECFE5D4E0DEBFCDBF16
:1000600010E0A0E6B0E0E6EFF0E002C005900D92EF
:10007000A236B107D9F720E0A2E6B0E001C01D9298
:10008000A236B207E1F70E9449000C9479000C9463
:10009000000011BA8FEF8ABB85B7836085BF80EC03
:1000A0008BBF789421E030E0C9010090600002C06D
:1000B000880F991F0A94E2F78BBBF6CF1F920F921D
:1000C0000FB60F921124109260000F900FBE0F9088
:1000D0001F9018951F920F920FB60F9211248F93B5
:1000E00081E0809360008F910F900FBE0F901F9062
:0600F0001895F894FFCF03
:0200F600030005
:00000001FF
