:100000000C9433000C9448000C9448000C94480065
:100010000C9448000C9448000C9448000C94480040
:100020000C9448000C9448000C9448000C94480030
:100030000C9448000C9448000C9448000C94480020
:100040000C9448000C9448000C9448000C94480010
:100050000C944800C600C800CA00CC00CE00D000F6
:10006000D200D400D60011241FBECFE5D4E0DEBFFD
:10007000CDBF10E0A0E6B0E0E8E0F2E002C00590FD
:100080000D92AE36B107D9F70E9496000C9402018A
:100090000C9400002AB128612AB920B5266820BD39
:1000A000DC01CB01880F991FAA1FBB1F880F991F66
:1000B000AA1FBB1F9C01AD01220F331F441F551FF8
:1000C000220F331F441F551F60E072E18AE790E062
:1000D0000E94DA008FEF820F89B9DA01C901019716
:1000E000A109B109892F9A2FAB2FBB2780BD089595
:1000F0005F9BFECF8CB108955D9BFECF8CB90895B8
:100100000F931F93CF93FC018081882359F08F01B7
:10011000C0E00E947C00CF5FF801EC0FF11D8081F0
:100120008111F7CFCF911F910F91089560E875E28B
:1001300080E090E00E944A0080E690E00E9480000B
:100140008FEF87BBAA24AA946894BB24B7F868945D
:10015000CC24C6F86894DD24D5F86894EE24E4F83D
:100160006894FF24F3F804E012E0D1E00E947800E4
:10017000C82F0E947C008C2F90E0FC01F097E930A2
:10018000F105B0F4E65DFF4F0C94FC0018BAEECF19
:10019000D8BBECCF18BBEACF08BBE8CFF8BAE6CFA4
:1001A000E8BAE4CFD8BAE2CFC8BAE0CFB8BADECF67
:1001B000A8BADCCFA1E21A2EAA1BBB1BFD010DC001
:1001C000AA1FBB1FEE1FFF1FA217B307E407F50707
:1001D00020F0A21BB30BE40BF50B661F771F881FE3
:1001E000991F1A9469F760957095809590959B0179
:1001F000AC01BD01CF010895EE0FFF1F0590F491F2
:08020000E02D0994F894FFCFF2
:0E0208000A09204563686F2054657374200056
:00000001FF
