:100000000C942A000C94E5020C94F1020C94470025
:100010000C9447000C9447000C9447000C94470044
:100020000C9400030C9447000C9447000C94470078
:100030000C9447000C9447000C9447000C94470024
:100040000C9447000C9447000C9447000C94470014
:100050000C94470011241FBECFE5D4E0DEBFCDBF16
:1000600010E0A0E6B0E0E2E4FFE002C005900D92EF
:10007000A43EB107D9F721E0A4EEB0E001C01D9283
:10008000AB31B207E1F70E94D1010C949F070C94A9
:10009000000098B39F70282F207F922B98BBC098A8
:1000A000C198C29A32E03A95F1F700C0C298EFE8E1
:1000B000F1E03197F1F700C0000028B32F70F0E1B4
:1000C0008F9FC0011124822B88BBC29A32E03A95DF
:1000D000F1F700C0C2988FE99FE00197F1F700C0E7
:1000E0000000089598B39F70282F207F922B98BB13
:1000F000C09AC29A32E03A95F1F700C0C298EFE890
:10010000F1E03197F1F700C0000028B32F70F0E163
:100110008F9FC0011124822B88BBC29A32E03A958E
:10012000F1F700C0C2988FE99FE00197F1F700C096
:10013000000008958FEF87BB8FE39CE90197F1F7EB
:1001400000C0000082E00E94490088E20E9449004D
:100150008CE00E94490086E00E94490081E00E94F4
:10016000490080E80E9449008FE99FE00197F1F77C
:1001700000C000000895CF93DF93EC0188818823AD
:1001800031F021960E94720089918111FBCFDF919D
:10019000CF910895CF93DF93EA0191E0811190E030
:1001A000992361F091E0603108F090E0992331F0FB
:1001B000862F8F7080680E94490009C0813039F411
:1001C000603128F4862F8F70806C0E944900CE0128
:1001D0000E94BB00DF91CF91089510BC83E389B9E1
:1001E0001BB886E880BD88E98AB9789408955D9B3C
:1001F000FECF8CB908950F931F93CF93FC0180819C
:10020000882359F08F01C0E00E94F700CF5FF8010A
:10021000EC0FF11D80818111F7CFCF911F910F91CC
:1002200008951ABA87B1816487B986B1836886B99F
:100230000895369A349BFECF8FEC97E00197F1F743
:1002400000C0000084B195B1089511BA85B78360EC
:1002500085BF80EC8BBF7894089594EA96BF06B66C
:1002600007FEFDCF91B1987F983071F483B984E88F
:1002700086BF06B607FEFDCF81B1887F883131F099
:10028000803231F083E0089580E0089581E00895A0
:1002900082E0089583B984E886BF06B607FEFDCFE5
:1002A00081B1887F883221F0803321F082E0089587
:1002B00080E0089581E0089594EA96BF06B607FEAF
:1002C000FDCF91B1987F903171F483B984E886BFF6
:1002D00006B607FEFDCF81B1887F803431F08834C7
:1002E00031F083E0089580E0089581E0089582E090
:1002F000089584EC86BF06B607FEFDCF83B108954E
:1003000084E886BF06B607FEFDCF83B1089584E971
:1003100086BF06B604FCFDCF0895CF93C82F80EDAD
:100320000E942D018C2F0E944A0181ED0E945C01E8
:100330000E9479018093EA000E9479018093E9008C
:100340000E9480018093E8000E948701CF91089568
:10035000CF93C82F80ED0E942D018C2F0E944A015F
:1003600081ED0E945C010E9479018093E7000E9468
:1003700079018093E6000E9479018093E5000E9454
:1003800080018093E4000E948701CF91089585E069
:100390008EBD88E99AE39DBD8CBD84E089BF7894C9
:1003A0000895CF93DF93CDB7DEB7A4970FB6F89437
:1003B000DEBF0FBECDBF0E949A000E9411010E94B5
:1003C000250180E1E0E6F0E0DE01559601900D9216
:1003D0008A95E1F780E280B90E94ED000E94C70192
:1003E0000F2EF9E1EF2EF12CF02D0F2EF0EC2F2E29
:1003F000F02D0F2EFCE96F2EF0E07F2EF02D0F2E4A
:10040000F1E08F2EF1E09F2EF02D0F2EFDEA4F2E02
:10041000F0E05F2EF02D0F2EFDEEAF2EF0E0BF2EA0
:10042000F02DCE0101966C012BBACE9903C09FEF3F
:10043000E91AF90ACF9903C021E0E21AF1080F2E58
:10044000FAE03F2EF02D00E010E00E9419018FE14C
:100450009EE40197F1F700C000000E941901080F07
:10046000191F3A943110F1CF8FE19EE40197F1F713
:1004700000C00000C8016AE070E00E948D04072EF1
:10048000000C880B990B0E9494032AE33EE34AEF89
:100490005EE30E94F8030E945C036093EB0070939C
:1004A000EC0080911A01811149C00E948D01809158
:1004B000EA001F928F938091E9001F928F938091A1
:1004C000E8008F731F928F9380E790E09F938F9344
:1004D000DF92CF920E94B504A60160E080E00E9406
:1004E000CA0083E00E94A801E091E700F0E0EE0F6F
:1004F000FF1FEC0DFD1D85898F9384898F9380915B
:10050000E4001F928F938091E5001F928F9380915A
:10051000E6001F928F938BE890E09F938F93DF927A
:10052000CF920E94B504A60160E081E00E94CA005B
:100530000FB6F894DEBF0FBECDBF33C07F936F936D
:100540007F926F929F928F920E94B504A40160E007
:1005500080E00E94CA00FF92EF925F924F92BF929A
:10056000AF920E94B504A50169E081E00E94CA0033
:100570000FB6F894DEBF0FBECDBF8091EB00909117
:10058000EC00E816F9063CF443EB50E060E081E053
:100590000E94CA0006C04DEB50E060E081E00E947E
:1005A000CA008091EB009091EC00E816F9060CF07F
:1005B0003BCFD29ADA9A9FE728E381E0915020401E
:1005C0008040E1F700C000002FCF1F920F920FB6BE
:1005D0000F92112410921A010F900FBE0F901F90CE
:1005E00018951F920F920FB60F9211248F9381E0EE
:1005F00080931A018F910F900FBE0F901F90189546
:100600001F920F920FB60F9211240F931F932F93E7
:100610003F934F935F936F937F938F939F93AF938A
:10062000BF93EF93FF93CF93DF93CDB7DEB7699777
:10063000DEBFCDBF88E99AE39DBD8CBD1A821982C9
:10064000FE01339687E1DF011D928A95E9F78091DB
:10065000EC008F938091EB008F9380EE90E09F935E
:100660008F938E010F5F1F4F1F930F930E94B5044E
:10067000C8010E94FB000F900F900F900F900F90F9
:100680000F9069960FB6F894DEBF0FBECDBFDF9115
:10069000CF91FF91EF91BF91AF919F918F917F91FA
:1006A0006F915F914F913F912F911F910F910F90FB
:1006B0000FBE0F901F9018950E9463036894B111AC
:1006C0000C94F20308950E94D70388F09F5798F086
:1006D000B92F9927B751B0F0E1F0660F771F881F47
:1006E000991F1AF0BA95C9F714C0B13091F00E9461
:1006F000F103B1E008950C94F103672F782F882758
:10070000B85F39F0B93FCCF3869577956795B39587
:10071000D9F73EF490958095709561957F4F8F4FF6
:100720009F4F0895E89409C097FB3EF490958095FB
:10073000709561957F4F8F4F9F4F9923A9F0F92FA7
:1007400096E9BB279395F695879577956795B79525
:10075000F111F8CFFAF4BB0F11F460FF1BC06F5F0B
:100760007F4F8F4F9F4F16C0882311F096E911C01D
:10077000772321F09EE8872F762F05C0662371F03E
:1007800096E8862F70E060E02AF09A95660F771F52
:10079000881FDAF7880F9695879597F9089557FD82
:1007A0009058440F551F59F05F3F71F04795880FDF
:1007B00097FB991F61F09F3F79F087950895121676
:1007C00013061406551FF2CF4695F1DF08C0161622
:1007D00017061806991FF1CF8695710561050894D3
:1007E0000895E894BB2766277727CB0197F90895EA
:1007F0000E940B040C947C040E946E0438F00E944A
:10080000750420F0952311F00C9465040C946B048E
:1008100011240C94F2030E94CF0370F3959FC1F34F
:10082000950F50E0551F629FF001729FBB27F00D9E
:10083000B11D639FAA27F00DB11DAA1F649F6627F3
:10084000B00DA11D661F829F2227B00DA11D621F42
:10085000739FB00DA11D621F839FA00D611D221FFC
:10086000749F3327A00D611D231F849F600D211DE0
:10087000822F762F6A2F11249F5750409AF0F1F063
:1008800088234AF0EE0FFF1FBB1F661F771F881FCC
:1008900091505040A9F79E3F510580F00C9465049B
:1008A0000C94F2035F3FE4F3983ED4F3869577957A
:1008B0006795B795F795E7959F5FC1F7FE2B880F72
:1008C000911D9695879597F9089597F99F6780E808
:1008D00070E060E008959FEF80EC089500240A9492
:1008E0001616170618060906089500240A9412160B
:1008F0001306140605060895092E0394000C11F43E
:10090000882352F0BB0F40F4BF2B11F460FF04C0EA
:100910006F5F7F4F8F4F9F4F089597FB072E16F401
:10092000009407D077FD09D00E94A10407FC05D0F0
:100930003EF4909581959F4F0895709561957F4FF6
:100940000895AA1BBB1B51E107C0AA1FBB1FA61716
:10095000B70710F0A61BB70B881F991F5A95A9F768
:1009600080959095BC01CD010895AEE0B0E0EBEB31
:10097000F4E00C9476070D891E8986E08C831A8337
:1009800009838FEF9FE79E838D83AE01475E5F4FA4
:100990006F89788DCE0101960E94D704EF81F8858A
:1009A000E00FF11F10822E96E4E00C949207ABE06A
:1009B000B0E0EDEDF4E00C9468076C017B018A0176
:1009C000FC0117821682838181FFCCC1CE01019682
:1009D0003C01F6019381F70193FD859193FF81918D
:1009E0007F01882309F4BAC1853239F493FD8591DA
:1009F00093FF81917F01853229F4B60190E00E9436
:100A0000CE06E7CF912C212C312CFFE1F315D8F045
:100A10008B3279F038F4803279F08332A1F4232DCF
:100A200020611DC08D3261F0803369F4232D216077
:100A300016C0832D8260382EE32DE4603E2E2AC03E
:100A4000F32DF8601DC037FC2DC020ED280F2A3093
:100A500040F08E32B9F436FC81C1232D2064322E51
:100A600019C036FE06C08AE0989E200D1124922EF1
:100A700011C0EAE02E9E200D1124222EF32DF062EB
:100A80003F2E08C08C3621F4832D8068382E02C09A
:100A9000883641F4F70193FD859193FF81917F01A1
:100AA0008111B3CF982F9F7D9554933028F40C5F1C
:100AB0001F4F9FE399830DC0833631F0833771F068
:100AC000833509F059C021C0F801808189830E5F08
:100AD0001F4F88248394912C530113C02801F2E006
:100AE0004F0E511CF801A080B18036FE03C0692D65
:100AF00070E002C06FEF7FEFC5010E94C3064C019A
:100B00008201F32DFF773F2E16C0280122E0420E0E
:100B1000511CF801A080B18036FE03C0692D70E041
:100B200002C06FEF7FEFC5010E94B8064C01F32DA4
:100B3000F0683F2E820133FC1BC0822D90E08816A6
:100B40009906B0F4B60180E290E00E94CE062A94A5
:100B5000F4CFF50137FC859137FE81915F01B60135
:100B600090E00E94CE0621102A9421E0821A91087A
:100B70008114910471F7E8C0843611F0893641F58B
:100B8000F80137FE07C060817181828193810C5F1B
:100B90001F4F08C060817181072E000C880B990BD4
:100BA0000E5F1F4FF32DFF763F2E97FF09C09095E4
:100BB0008095709561957F4F8F4F9F4FF0683F2EC6
:100BC0002AE030E0A3010E940A07882E861845C05B
:100BD000853731F4232D2F7EB22E2AE030E025C058
:100BE000932D997FB92E8F36C1F018F4883579F09E
:100BF000B5C0803719F0883721F0B0C0E92FE06127
:100C0000BE2EB4FE0DC0FB2DF460BF2E09C034FE15
:100C10000AC0292F2660B22E06C028E030E005C0A9
:100C200020E130E002C020E132E0F801B7FE07C069
:100C300060817181828193810C5F1F4F06C060814A
:100C4000718180E090E00E5F1F4FA3010E940A07B0
:100C5000882E8618FB2DFF773F2E36FE0DC0232DE4
:100C60002E7FA22E891458F434FE0BC032FC09C02A
:100C7000832D8E7EA82E05C0B82CA32C03C0B82CC3
:100C800001C0B92CA4FE0FC0FE01E80DF11D80814A
:100C9000803321F49A2D997EA92E09C0A2FE06C0A8
:100CA000B394B39404C08A2D867809F0B394A3FC5E
:100CB00011C0A0FE06C0B21488F4280C922C9B1818
:100CC0000EC0B21460F4B60180E290E00E94CE063D
:100CD000B394F7CFB21418F42B1802C0982C212C1F
:100CE000A4FE10C0B60180E390E00E94CE06A2FEF2
:100CF00017C0A1FC03C088E790E002C088E590E03F
:100D0000B6010CC08A2D867859F0A1FE02C08BE294
:100D100001C080E2A7FC8DE2B60190E00E94CE0601
:100D2000891438F4B60180E390E00E94CE069A94CC
:100D3000F7CF8A94F301E80DF11D8081B60190E0B0
:100D40000E94CE068110F5CF222009F442CEB601D2
:100D500080E290E00E94CE062A94F6CFF6018681CA
:100D6000978102C08FEF9FEF2B96E2E10C948407EE
:100D7000FC010590615070400110D8F78095909566
:100D80008E0F9F1F0895FC0161507040019001106B
:100D9000D8F7809590958E0F9F1F08950F931F93FE
:100DA000CF93DF93FB01238121FD03C08FEF9FEFE2
:100DB0002CC022FF16C046815781248135814217FD
:100DC000530744F4A081B1819D012F5F3F4F3183D0
:100DD00020838C93268137812F5F3F4F3783268373
:100DE00014C08B01EC01FB010084F185E02D099515
:100DF000892BE1F6D80116968D919C911797019653
:100E000017969C938E931697CE01DF91CF911F91E9
:100E10000F910895FA01AA27283051F1203181F16C
:100E2000E8946F936E7F6E5F7F4F8F4F9F4FAF4FF2
:100E3000B1E03ED0B4E03CD0670F781F891F9A1F05
:100E4000A11D680F791F8A1F911DA11D6A0F711DB9
:100E5000811D911DA11D20D009F468943F912AE0C5
:100E6000269F11243019305D3193DEF6CF010895AD
:100E7000462F4770405D4193B3E00FD0C9F7F6CFDE
:100E8000462F4F70405D4A3318F0495D31FD4052A6
:100E9000419302D0A9F7EACFB4E0A695979587953C
:100EA00077956795BA95C9F700976105710508951B
:100EB0009B01AC010A2E06945795479537952795C7
:100EC000BA95C9F7620F731F841F951FA01D08955F
:100ED0002F923F924F925F926F927F928F929F924A
:100EE000AF92BF92CF92DF92EF92FF920F931F9338
:100EF000CF93DF93CDB7DEB7CA1BDB0B0FB6F894E9
:100F0000DEBF0FBECDBF09942A88398848885F8428
:100F10006E847D848C849B84AA84B984C884DF8099
:100F2000EE80FD800C811B81AA81B981CE0FD11D7D
:100F30000FB6F894DEBF0FBECDBFED010895F89453
:020F4000FFCFE1
:100F42000000C700CA00CE00D100D400D800DC00E7
:100F52003C3C2054696D6520253032783A25303288
:100F6200783A253032782020202000202025782D44
:100F720025782D2578202573202020006E6869654C
:100F82007420646F3A2564DF63203E3E004C433A8E
:100F9200256400686F74212121202020006E6F7269
:100FA2006D616C20202000436E004861690042613F
:100FB200005475004E616D00536175004261790005
:040FC20025640A0098
:00000001FF
