:100000000C942A000C9434000C9434000C943400AA
:100010000C9434000C9434000C9434000C94340090
:100020000C9434000C9434000C9434000C94340080
:100030000C9434000C9452000C9434000C94340052
:100040000C9434000C9434000C9434000C94340060
:100050000C94340011241FBECFE5D8E0DEBFCDBF25
:100060000E944B000C945C000C940000899A83E37E
:1000700089B910BC8AB188658AB980B5876080BDAE
:1000800008955D9BFECF8CB95E9BFECF08955F9B6C
:10009000FECF8CB108950E9436000E9447000E9456
:1000A0004100FBCF1F920F920FB60F9211240F90B9
:0C00B0000FBE0F901F901895F894FFCF22
:00000001FF
