:100000000C942A000C944D000C943C000C943C0081
:100010000C943C000C943C000C943C000C943C0070
:100020000C943C000C943C000C943C000C943C0060
:100030000C943C000C943C000C943C000C943C0050
:100040000C943C000C943C000C943C000C943C0040
:100050000C943C0011241FBECFE5D8E0DEBFCDBF1D
:1000600020E0A0E6B0E001C01D92A136B207E1F7A2
:100070000E9445000C9461000C9400008BB78064D2
:100080008BBF85B7816085BF08958FEF8ABB11BA9A
:1000900082BB0E943E007894FFCF1F920F920FB652
:1000A0000F9211248F93809160008F5F8093600086
:1000B0008BB380958BBB8F910F900FBE0F901F90CD
:0600C0001895F894FFCF33
:00000001FF
