:100000000C942A000C943F000C943F000C943F0089
:100010000C943F000C943F000C943F000C943F0064
:100020000C943F000C943F000C943F000C943F0054
:100030000C943F000C943F000C943F000C943F0044
:100040000C943F000C943F000C943F000C943F0034
:100050000C943F0011241FBECFE5D4E0DEBFCDBF1E
:1000600010E0A0E6B0E0E0E9F1E002C005900D92FA
:10007000A636B107D9F70E94BF000C94C6000C94B5
:10008000000098B39F70282F207F922B98BBC098B8
:10009000C198C29A32E03A95F1F700C0C298EFE8F1
:1000A000F1E03197F1F700C0000028B32F70F0E1C4
:1000B0008F9FC0011124822B88BBC29A32E03A95EF
:1000C000F1F700C0C2988FE99FE00197F1F700C0F7
:1000D0000000089598B39F70282F207F922B98BB23
:1000E000C09AC29A32E03A95F1F700C0C298EFE8A0
:1000F000F1E03197F1F700C0000028B32F70F0E174
:100100008F9FC0011124822B88BBC29A32E03A959E
:10011000F1F700C0C2988FE99FE00197F1F700C0A6
:10012000000008958FEF87BB8FE39CE90197F1F7FB
:1001300000C0000082E00E94410088E20E9441006D
:100140008CE00E94410086E00E94410081E00E9414
:1001500041008FE99FE00197F1F700C0000008958A
:10016000CF93DF93EC018881882331F021960E94A0
:100170006A0089918111FBCFDF91CF9108950E9490
:10018000920080E690E00E94B000FBCFF894FFCF91
:060190003132333435006A
:00000001FF
