:100000000C942A000C9434000C9434000C943400AA
:100010000C9434000C9434000C9434000C94340090
:100020000C9434000C9434000C9434000C94340080
:100030000C9434000C9434000C9434000C94340070
:100040000C9434000C9434000C9434000C94340060
:100050000C94340011241FBECFE5D8E0DEBFCDBF25
:100060000E94FF000C944E010C94000092B3907F0C
:10007000282F22952F70922B92BBA898A998AA9A04
:10008000EFECF7E03197F1F700C00000AA98EFEC31
:10009000F7E03197F1F700C0000092B3907F8F70C6
:1000A000892B82BBA898A998AA9A8FEC97E0019710
:1000B000F1F700C00000AA98EFECF7E03197F1F7F4
:1000C00000C00000089512BA92B3282F22952F7015
:1000D000922B92BBA89AA998AA9AEFECF7E03197D5
:1000E000F1F700C00000AA98EFECF7E03197F1F7C4
:1000F00000C0000012BA92B38F70892B82BBA89AFD
:10010000A998AA9A8FEC97E00197F1F700C0000038
:10011000AA98EFECF7E03197F1F700C000000895DE
:100120008FEF81BB84BB8FE39CE90197F1F700C09F
:10013000000082E00E94360088E20E9436008CE0D7
:100140000E94360086E00E94360081E00E94360060
:100150000895CF93DF93EC018881882331F02196B5
:100160000E94630089918111FBCFDF91CF910895A7
:10017000EF92FF920F931F93CF93DF939C018B011C
:10018000009709F140E0EAE0F0E0BF010E9426019B
:10019000CB014F5F0097C9F74423B1F0E801C40FCA
:1001A000D11DE0E00F2EFAE0EF2EF12CF02DC90169
:1001B000B7010E942601805D8A93262F372FEF5FBB
:1001C0004E13F5CF01C040E0F801E40FF11D80E2CD
:1001D0008083DF91CF911F910F91FF90EF90089551
:1001E00097B1892B87B9369A349BFECF8FE19EE475
:1001F0000197F1F700C0000084B195B10895CF9345
:10020000DF93CDB7DEB729970FB6F894DEBF0FBEE8
:10021000CDBF0E9490001ABA86B1876986B9FE01E7
:10022000319689E0DF011D928A95E9F780E00E940E
:10023000F000BE016F5F7F4F0E94B80081EC0E940A
:100240003600CE0101960E94A900F0CF97FB072E41
:1002500016F4009407D077FD09D00E943A0107FCFC
:1002600005D03EF4909581959F4F089570956195C6
:100270007F4F0895AA1BBB1B51E107C0AA1FBB1FDC
:10028000A617B70710F0A61BB70B881F991F5A9522
:10029000A9F780959095BC01CD010895F894FFCF02
:00000001FF
