S00E000054696D6572302E73726563E5
S11300000C942A000C9434000C9434000C943400A6
S11300100C9434000C9434000C9434000C9434008C
S11300200C9434000C9434000C9434000C944E0062
S11300300C9434000C9434000C9434000C9434006C
S11300400C9434000C9434000C9434000C9434005C
S11300500C94340011241FBECFE5D8E0DEBFCDBF21
S11300600E945F000C946D000C94000088E382BF32
S113007083B7826083BF89B7816089BF08B600FEF9
S1130080FDCF08958CE984BD85B5826085BD08B631
S113009006FEFDCF15BC80E488BF08951F920F9221
S11300A00FB60F9211248F938CE982BF8BB3809586
S11300B08BBB8F910F900FBE0F901F9018958FEFF1
S11300C08ABB81BB8BBB12BA0E943600789482B380
S11100D0809582BB0E944200FACFF894FFCFC5
S9030000FC
