S00B00004932432E737265635B
S11300000C942A000C9447000C9447000C9447006D
S11300100C9447000C9447000C9447000C94470040
S11300200C9447000C9447000C9447000C94470030
S11300300C9447000C9447000C9447000C94470020
S11300400C9447000C9447000C9447000C94470010
S11300500C94470011241FBECFE5D4E0DEBFCDBF12
S113006010E0A0E6B0E0EAE7FAE002C005900D92E5
S1130070AC3AB107D9F720E0ACEAB0E001C01D9278
S1130080AA3BB207E1F70E94CC010C943B050C9407
S1130090000094EA96BF06B607FEFDCF91B1987FA3
S11300A0983071F483B984E886BF06B607FEFDCFA5
S11300B081B1887F883131F0803231F083E0089556
S11300C080E0089581E0089582E0089583B984E88A
S11300D086BF06B607FEFDCF81B1887F883221F046
S11300E0803321F082E0089580E0089581E008954E
S11300F094EA96BF06B607FEFDCF91B1987F903182
S113010071F483B984E886BF06B607FEFDCF81B1DA
S1130110887F803431F0883431F083E0089580E0C2
S1130120089581E0089582E0089584EC86BF06B6C0
S113013007FEFDCF83B1089584E886BF06B607FEA7
S1130140FDCF83B1089584E986BF06B604FCFDCFD4
S113015008951F93CF93DF93D62F142FC82FC22B4C
S113016080ED0E94490080E00E946600812F0E9479
S113017066008D2F0E9466008C2F0E9466000E94EC
S1130180A300DF91CF911F910895FF920F931F93C6
S1130190CF93DF93F82E162FD42FC22F80ED0E9419
S11301A0490083E00E9466008F2D0E946600812F23
S11301B00E9466008D2F0E9466008C2F0E946600AC
S11301C0802F0E9466000E94A300DF91CF911F91AF
S11301D00F91FF900895CF93C82F80ED0E9449009E
S11301E08C2F0E94660081ED0E9478000E94950089
S11301F090E09093B9008093B8000E94950090E03D
S11302009093B7008093B6000E94950090E090937D
S1130210B5008093B4000E94950090E09093B300E1
S11302208093B2000E94950090E09093B100809377
S1130230B0000E94950090E09093AF008093AE00D0
S11302400E949C0090E09093AD008093AC000E94CB
S1130250A300CF91089598B39F70282F207F922BED
S113026098BBC098C198C29A32E03A95F1F700C0A1
S1130270C298EFE8F1E03197F1F700C0000028B32D
S11302802F70F0E18F9FC0011124822B88BBC29A8A
S113029032E03A95F1F700C0C2988FE99FE00197E8
S11302A0F1F700C00000089598B39F70282F207FB5
S11302B0922B98BBC09AC29A32E03A95F1F700C0EB
S11302C0C298EFE8F1E03197F1F700C0000028B3DD
S11302D02F70F0E18F9FC0011124822B88BBC29A3A
S11302E032E03A95F1F700C0C2988FE99FE0019798
S11302F0F1F700C0000008958FEF87BB8FE39CE9FE
S11303000197F1F700C0000082E00E942B0188E20F
S11303100E942B018CE00E942B0186E00E942B019D
S113032081E00E942B018FE99FE00197F1F700C063
S113033000000895CF93DF93EC018881882331F086
S113034021960E94540189918111FBCFDF91CF91B5
S11303500895CF93DF93EA0191E0811190E099230E
S113036061F091E0603108F090E0992331F0862F3C
S11303708F7080680E942B0109C0813039F460318C
S113038028F4862F8F70806C0E942B01CE010E946E
S11303909A01DF91CF910895CF93DF93CDB7DEB764
S11303A0A2970FB6F894DEBF0FBECDBF8EE0E0E695
S11303B0F0E0DE01559601900D928A95E1F780E216
S11303C080B90E947C0120E040E061E288E10E9463
S11303D0A90000E120E242E163E181E00E94C5005E
S11303E00F2EFEE6CF2EF0E0DF2EF02D8E010F5FF4
S11303F01F4F0F2EFFE7EF2EF0E0FF2EF02D80E0D1
S11304000E94EB008091B9008F938091B8008F9384
S11304108091B7008F938091B6008F938091B40040
S11304209091B5008F7399279F938F93DF92CF920A
S11304301F930F930E945102A80160E080E00E9484
S1130440A901E091B200F091B3003197EE0FFF1FC4
S1130450E00FF11F85898F9384898F938091AD007C
S11304608F938091AC008F938091AF008F93809194
S1130470AE008F938091B1008F938091B0008F93E1
S1130480FF92EF921F930F930E945102A80160E024
S113049081E00E94A9010FB6F894DEBF0FBECDBF64
S11304A0AECFAEE0B0E0E7E5F2E00C9412050D89C2
S11304B01E8986E08C831A8309838FEF9FE79E83CE
S11304C08D83AE01475E5F4F6F89788DCE010196B3
S11304D00E947302EF81F885E00FF11F10822E96BF
S11304E0E4E00C942E05ABE0B0E0E9E7F2E00C9414
S11304F004056C017B018A01FC0117821682838149
S113050081FFCCC1CE0101963C01F6019381F70134
S113051093FD859193FF81917F01882309F4BAC1EA
S1130520853239F493FD859193FF81917F01853262
S113053029F4B60190E00E946A04E7CF912C212CA3
S1130540312CFFE1F315D8F08B3279F038F4803296
S113055079F08332A1F4232D20611DC08D3261F026
S1130560803369F4232D216016C0832D8260382ED8
S1130570E32DE4603E2E2AC0F32DF8601DC037FC45
S11305802DC020ED280F2A3040F08E32B9F436FC0D
S113059081C1232D2064322E19C036FE06C08AE0A4
S11305A0989E200D1124922E11C0EAE02E9E200D5B
S11305B01124222EF32DF0623F2E08C08C3621F434
S11305C0832D8068382E02C0883641F4F70193FDEC
S11305D0859193FF81917F018111B3CF982F9F7DE6
S11305E09554933028F40C5F1F4F9FE399830DC0FB
S11305F0833631F0833771F0833509F059C021C057
S1130600F801808189830E5F1F4F88248394912C85
S1130610530113C02801F2E04F0E511CF801A080D1
S1130620B18036FE03C0692D70E002C06FEF7FEF2A
S1130630C5010E945F044C018201F32DFF773F2E18
S113064016C0280122E0420E511CF801A080B1809E
S113065036FE03C0692D70E002C06FEF7FEFC50165
S11306600E9454044C01F32DF0683F2E820133FCA8
S11306701BC0822D90E088169906B0F4B60180E282
S113068090E00E946A042A94F4CFF50137FC859126
S113069037FE81915F01B60190E00E946A04211047
S11306A02A9421E0821A91088114910471F7E8C018
S11306B0843611F0893641F5F80137FE07C06081B0
S11306C07181828193810C5F1F4F08C060817181A9
S11306D0072E000C880B990B0E5F1F4FF32DFF762E
S11306E03F2E97FF09C090958095709561957F4F37
S11306F08F4F9F4FF0683F2E2AE030E0A3010E9405
S1130700A604882E861845C0853731F4232D2F7E04
S1130710B22E2AE030E025C0932D997FB92E8F3672
S1130720C1F018F4883579F0B5C0803719F08837EE
S113073021F0B0C0E92FE061BE2EB4FE0DC0FB2D48
S1130740F460BF2E09C034FE0AC0292F2660B22EE1
S113075006C028E030E005C020E130E002C020E11E
S113076032E0F801B7FE07C0608171818281938114
S11307700C5F1F4F06C06081718180E090E00E5FC6
S11307801F4FA3010E94A604882E8618FB2DFF7715
S11307903F2E36FE0DC0232D2E7FA22E891458F431
S11307A034FE0BC032FC09C0832D8E7EA82E05C0FA
S11307B0B82CA32C03C0B82C01C0B92CA4FE0FC0C4
S11307C0FE01E80DF11D8081803321F49A2D997E7C
S11307D0A92E09C0A2FE06C0B394B39404C08A2D06
S11307E0867809F0B394A3FC11C0A0FE06C0B2142D
S11307F088F4280C922C9B180EC0B21460F4B60135
S113080080E290E00E946A04B394F7CFB21418F423
S11308102B1802C0982C212CA4FE10C0B60180E332
S113082090E00E946A04A2FE17C0A1FC03C088E7FE
S113083090E002C088E590E0B6010CC08A2D86786D
S113084059F0A1FE02C08BE201C080E2A7FC8DE258
S1130850B60190E00E946A04891438F4B60180E37A
S113086090E00E946A049A94F7CF8A94F301E80D09
S1130870F11D8081B60190E00E946A048110F5CFD9
S1130880222009F442CEB60180E290E00E946A047C
S11308902A94F6CFF6018681978102C08FEF9FEFED
S11308A02B96E2E10C942005FC0105906150704008
S11308B00110D8F7809590958E0F9F1F0895FC0125
S11308C06150704001900110D8F7809590958E0F7B
S11308D09F1F08950F931F93CF93DF93FB012381F1
S11308E021FD03C08FEF9FEF2CC022FF16C046816D
S11308F05781248135814217530744F4A081B18183
S11309009D012F5F3F4F318320838C932681378154
S11309102F5F3F4F3783268314C08B01EC01FB010B
S11309200084F185E02D0995892BE1F6D80116960E
S11309308D919C911797019617969C938E93169779
S1130940CE01DF91CF911F910F910895FA01AA274B
S1130950283051F1203181F1E8946F936E7F6E5FFE
S11309607F4F8F4F9F4FAF4FB1E03ED0B4E03CD0AC
S1130970670F781F891F9A1FA11D680F791F8A1F8F
S1130980911DA11D6A0F711D811D911DA11D20D0F6
S113099009F468943F912AE0269F11243019305DB0
S11309A03193DEF6CF010895462F4770405D4193A1
S11309B0B3E00FD0C9F7F6CF462F4F70405D4A33EE
S11309C018F0495D31FD4052419302D0A9F7EACFB6
S11309D0B4E0A6959795879577956795BA95C9F7E5
S11309E000976105710508959B01AC010A2E0694D8
S11309F05795479537952795BA95C9F7620F731F91
S1130A00841F951FA01D08952F923F924F925F92CD
S1130A106F927F928F929F92AF92BF92CF92DF920A
S1130A20EF92FF920F931F93CF93DF93CDB7DEB76F
S1130A30CA1BDB0B0FB6F894DEBF0FBECDBF099403
S1130A402A88398848885F846E847D848C849B845A
S1130A50AA84B984C884DF80EE80FD800C811B8168
S1130A60AA81B981CE0FD11D0FB6F894DEBF0FBE97
S10D0A70CDBFED010895F894FFCF07
S1130A7A930096009A009D00A000A400A8002530C7
S1130A8A32783A253032783A2530327820200025D7
S1130A9A3032782F253032782F253032782025339A
S1130AAA732000434E004861690042610054750096
S10F0ABA4E616D005361750042617900CB
S9030000FC
