S01200004932435F4D61737465722E7372656389
S11300000C942A000C9434000C9434000C943400A6
S11300100C9434000C9434000C9434000C9434008C
S11300200C9434000C9434000C9434000C9434007C
S11300300C9434000C9434000C9434000C9434006C
S11300400C9434000C9434000C9434000C9434005C
S11300500C94340011241FBECFE5D8E0DEBFCDBF21
S11300600E945A000C9476000C94000084EA86BF27
S113007006B607FEFDCF91B1987F81E0983009F074
S113008080E0089583B984E886BF06B607FEFDCFF5
S113009081B1887F883221F0803321F082E0089595
S11300A080E0089581E0089584E986BF06B604FCE3
S11300B0FDCF089580E280B90E94360082E00E945C
S11300C0420084E40E94420085E50E94420083E4E9
S11300D00E9442000E9454002FEF8EE994E22150C6
S11300E080409040E1F700C00000E6CFF894FFCFD5
S9030000FC
